{
  "_format": "hh-sol-artifact-1",
  "contractName": "MarketSentiment",
  "sourceName": "contracts/MarketSentiment.sol",
  "abi": [
    {
      "inputs": [],
      "stateMutability": "nonpayable",
      "type": "constructor"
    },
    {
      "anonymous": false,
      "inputs": [
        {
          "indexed": false,
          "internalType": "uint256",
          "name": "up",
          "type": "uint256"
        },
        {
          "indexed": false,
          "internalType": "uint256",
          "name": "dowm",
          "type": "uint256"
        },
        {
          "indexed": false,
          "internalType": "address",
          "name": "voter",
          "type": "address"
        },
        {
          "indexed": false,
          "internalType": "string",
          "name": "ticker",
          "type": "string"
        }
      ],
      "name": "tickerUpdated",
      "type": "event"
    },
    {
      "inputs": [
        {
          "internalType": "string",
          "name": "_ticker",
          "type": "string"
        }
      ],
      "name": "addTicker",
      "outputs": [],
      "stateMutability": "nonpayable",
      "type": "function"
    },
    {
      "inputs": [
        {
          "internalType": "string",
          "name": "_ticker",
          "type": "string"
        }
      ],
      "name": "getVotes",
      "outputs": [
        {
          "internalType": "uint256",
          "name": "up",
          "type": "uint256"
        },
        {
          "internalType": "uint256",
          "name": "down",
          "type": "uint256"
        }
      ],
      "stateMutability": "view",
      "type": "function"
    },
    {
      "inputs": [],
      "name": "owner",
      "outputs": [
        {
          "internalType": "address",
          "name": "",
          "type": "address"
        }
      ],
      "stateMutability": "view",
      "type": "function"
    },
    {
      "inputs": [
        {
          "internalType": "uint256",
          "name": "",
          "type": "uint256"
        }
      ],
      "name": "tickersArray",
      "outputs": [
        {
          "internalType": "string",
          "name": "",
          "type": "string"
        }
      ],
      "stateMutability": "view",
      "type": "function"
    },
    {
      "inputs": [
        {
          "internalType": "string",
          "name": "_ticker",
          "type": "string"
        },
        {
          "internalType": "bool",
          "name": "_vote",
          "type": "bool"
        }
      ],
      "name": "vote",
      "outputs": [],
      "stateMutability": "nonpayable",
      "type": "function"
    }
  ],
  "bytecode": "0x608060405234801561001057600080fd5b50336000806101000a81548173ffffffffffffffffffffffffffffffffffffffff021916908373ffffffffffffffffffffffffffffffffffffffff160217905550610d24806100606000396000f3fe608060405234801561001057600080fd5b50600436106100575760003560e01c806327d3410c1461005c5780635f6449ad1461007857806376152ab214610094578063805265e5146100c45780638da5cb5b146100f5575b600080fd5b6100766004803603810190610071919061073d565b610113565b005b610092600480360381019061008d91906106f4565b610333565b005b6100ae60048036038101906100a99190610799565b610440565b6040516100bb91906108e9565b60405180910390f35b6100de60048036038101906100d991906106f4565b6104ec565b6040516100ec92919061096b565b60405180910390f35b6100fd610593565b60405161010a91906108ce565b60405180910390f35b60028260405161012391906108b7565b908152602001604051809103902060000160009054906101000a900460ff16610181576040517f08c379a00000000000000000000000000000000000000000000000000000000081526004016101789061092b565b60405180910390fd5b60028260405161019191906108b7565b908152602001604051809103902060030160003373ffffffffffffffffffffffffffffffffffffffff1673ffffffffffffffffffffffffffffffffffffffff16815260200190815260200160002060009054906101000a900460ff161561022d576040517f08c379a00000000000000000000000000000000000000000000000000000000081526004016102249061090b565b60405180910390fd5b600060028360405161023f91906108b7565b9081526020016040518091039020905060018160030160003373ffffffffffffffffffffffffffffffffffffffff1673ffffffffffffffffffffffffffffffffffffffff16815260200190815260200160002060006101000a81548160ff02191690831515021790555081156102ce578060010160008154809291906102c490610b4a565b91905055506102e9565b8060020160008154809291906102e390610b4a565b91905055505b7fb002715139b33590b43cf49947dfd3314c9ae776830367fbd8843fd3cda25fb88160010154826002015433866040516103269493929190610994565b60405180910390a1505050565b60008054906101000a900473ffffffffffffffffffffffffffffffffffffffff1673ffffffffffffffffffffffffffffffffffffffff163373ffffffffffffffffffffffffffffffffffffffff16146103c1576040517f08c379a00000000000000000000000000000000000000000000000000000000081526004016103b89061094b565b60405180910390fd5b60006002826040516103d391906108b7565b9081526020016040518091039020905060018160000160006101000a81548160ff02191690831515021790555060018290806001815401808255809150506001900390600052602060002001600090919091909150908051906020019061043b9291906105b7565b505050565b6001818154811061045057600080fd5b90600052602060002001600091509050805461046b90610ae7565b80601f016020809104026020016040519081016040528092919081815260200182805461049790610ae7565b80156104e45780601f106104b9576101008083540402835291602001916104e4565b820191906000526020600020905b8154815290600101906020018083116104c757829003601f168201915b505050505081565b6000806002836040516104ff91906108b7565b908152602001604051809103902060000160009054906101000a900460ff1661055d576040517f08c379a00000000000000000000000000000000000000000000000000000000081526004016105549061092b565b60405180910390fd5b600060028460405161056f91906108b7565b90815260200160405180910390209050806001015481600201549250925050915091565b60008054906101000a900473ffffffffffffffffffffffffffffffffffffffff1681565b8280546105c390610ae7565b90600052602060002090601f0160209004810192826105e5576000855561062c565b82601f106105fe57805160ff191683800117855561062c565b8280016001018555821561062c579182015b8281111561062b578251825591602001919060010190610610565b5b509050610639919061063d565b5090565b5b8082111561065657600081600090555060010161063e565b5090565b600061066d61066884610a05565b6109e0565b90508281526020810184848401111561068957610688610c25565b5b610694848285610aa5565b509392505050565b6000813590506106ab81610cc0565b92915050565b600082601f8301126106c6576106c5610c20565b5b81356106d684826020860161065a565b91505092915050565b6000813590506106ee81610cd7565b92915050565b60006020828403121561070a57610709610c2f565b5b600082013567ffffffffffffffff81111561072857610727610c2a565b5b610734848285016106b1565b91505092915050565b6000806040838503121561075457610753610c2f565b5b600083013567ffffffffffffffff81111561077257610771610c2a565b5b61077e858286016106b1565b925050602061078f8582860161069c565b9150509250929050565b6000602082840312156107af576107ae610c2f565b5b60006107bd848285016106df565b91505092915050565b6107cf81610a5d565b82525050565b60006107e082610a36565b6107ea8185610a41565b93506107fa818560208601610ab4565b61080381610c34565b840191505092915050565b600061081982610a36565b6108238185610a52565b9350610833818560208601610ab4565b80840191505092915050565b600061084c600d83610a41565b915061085782610c45565b602082019050919050565b600061086f601683610a41565b915061087a82610c6e565b602082019050919050565b6000610892600a83610a41565b915061089d82610c97565b602082019050919050565b6108b181610a9b565b82525050565b60006108c3828461080e565b915081905092915050565b60006020820190506108e360008301846107c6565b92915050565b6000602082019050818103600083015261090381846107d5565b905092915050565b600060208201905081810360008301526109248161083f565b9050919050565b6000602082019050818103600083015261094481610862565b9050919050565b6000602082019050818103600083015261096481610885565b9050919050565b600060408201905061098060008301856108a8565b61098d60208301846108a8565b9392505050565b60006080820190506109a960008301876108a8565b6109b660208301866108a8565b6109c360408301856107c6565b81810360608301526109d581846107d5565b905095945050505050565b60006109ea6109fb565b90506109f68282610b19565b919050565b6000604051905090565b600067ffffffffffffffff821115610a2057610a1f610bf1565b5b610a2982610c34565b9050602081019050919050565b600081519050919050565b600082825260208201905092915050565b600081905092915050565b6000610a6882610a7b565b9050919050565b60008115159050919050565b600073ffffffffffffffffffffffffffffffffffffffff82169050919050565b6000819050919050565b82818337600083830152505050565b60005b83811015610ad2578082015181840152602081019050610ab7565b83811115610ae1576000848401525b50505050565b60006002820490506001821680610aff57607f821691505b60208210811415610b1357610b12610bc2565b5b50919050565b610b2282610c34565b810181811067ffffffffffffffff82111715610b4157610b40610bf1565b5b80604052505050565b6000610b5582610a9b565b91507fffffffffffffffffffffffffffffffffffffffffffffffffffffffffffffffff821415610b8857610b87610b93565b5b600182019050919050565b7f4e487b7100000000000000000000000000000000000000000000000000000000600052601160045260246000fd5b7f4e487b7100000000000000000000000000000000000000000000000000000000600052602260045260246000fd5b7f4e487b7100000000000000000000000000000000000000000000000000000000600052604160045260246000fd5b600080fd5b600080fd5b600080fd5b600080fd5b6000601f19601f8301169050919050565b7f416c726561647920566f74656400000000000000000000000000000000000000600082015250565b7f43616e7420566f7465206f6e207468697320436f696e00000000000000000000600082015250565b7f4f6e6c79204f776e657200000000000000000000000000000000000000000000600082015250565b610cc981610a6f565b8114610cd457600080fd5b50565b610ce081610a9b565b8114610ceb57600080fd5b5056fea26469706673582212201fff1f8519217cde56d329f922c2070dd1a734c9e2bf45ed79386509a640683864736f6c63430008070033",
  "linkReferences": {},
  "deployedLinkReferences": {}
}